:020000040800F2
:10000000A0070024390300082F2A0008C52900088A
:100010002D2A00083D0400080D2E000800000000F5
:10002000000000000000000000000000752C000827
:100030007106000800000000312A0008772C000833
:100040005703000857030008570300085703000828
:100050005703000857030008570300085703000818
:100060005703000857030008570300085703000808
:1000700057030008570300085703000857030008F8
:1000800057030008570300085703000857030008E8
:1000900057030008570300085703000857030008D8
:1000A00057030008570300085703000857030008C8
:1000B00057030008570300085703000857030008B8
:1000C00057030008570300085703000857030008A8
:1000D0005703000857030008570300085703000898
:1000E00057030008570300080000000057030008EA
:1000F0005703000857030008570300085703000878
:100100005703000857030008570300085703000867
:100110005703000857030008570300085703000857
:100120005703000857030008570300085703000847
:100130005703000857030008570300085703000837
:1001400000000000000000000000000000000000AF
:1001500057030008410400084D0400085703000835
:100160005703000857030008570300085703000807
:100170005703000857030008570300080000000059
:100180005703000857030008012E00085703000812
:1001900057030008570300085703000857030008D7
:1001A00057030008570300085703000857030008C7
:1001B00057030008570300085703000857030008B7
:1001C00057030008570300085703000857030008A7
:1001D0005703000857030008570300085703000897
:1001E0005703000857030008570300085703000887
:1001F0005703000857030008570300085703000877
:100200005703000857030008570300085703000866
:100210005703000857030008570300085703000856
:1002200057030008570300085703000800000000A8
:100230005703000857030008000000005703000898
:100240005703000857030008570300085703000826
:100250005703000857030008570300085703000816
:100260005703000857030008570300085703000806
:100270005703000857030008570300080000000058
:100280005703000857030008570300080000000048
:10029000000000005703000800F002F800F03CF8EE
:1002A0000AA090E8000C82448344AAF10107DA45D1
:1002B00001D100F031F8AFF2090EBAE80F0013F0E7
:1002C000010F18BFFB1A43F001031847402C000030
:1002D000602C0000103A24BF78C878C1FAD85207C1
:1002E00024BF30C830C144BF04680C6070470000B0
:1002F0000023002400250026103A28BF78C1FBD82F
:10030000520728BF30C148BF0B6070471FB502F0CD
:10031000EBFD1FBD10B510BD00F062F81146FFF7F0
:10032000F5FF02F087FD00F080F803B4FFF7F2FF5D
:1003300003BC02F07DFD00000A4880470A48804760
:100340000A480047FEE7FEE7FEE7FEE7FEE7FEE7B6
:10035000FEE7FEE7FEE7FEE705480649064A074BCB
:100360007047000079060008092D0008990200086E
:10037000A0010024A0070024A0030024A00300245F
:1003800070474FF0000200B5134694469646203958
:1003900022BFA0E80C50A0E80C50B1F12001BFF43E
:1003A000F7AF090728BFA0E80C5048BF0CC05DF8A4
:1003B00004EB890028BF40F8042B08BF704748BFF2
:1003C00020F8022B11F0804F18BF00F8012B704766
:1003D00070477047704770470048704740010024DD
:1003E0007546FFF7F9FFAE4605006946534620F013
:1003F0000700854618B020B5FFF7AEFFBDE82040E6
:100400004FF000064FF000074FF000084FF0000BD0
:1004100021F00701AC46ACE8C009ACE8C009ACE883
:10042000C009ACE8C0098D46704710B50446AFF36B
:1004300000802046BDE81040FFF777BFFEE70000D0
:10044000014800F027B9000050000024014800F0E6
:1004500021B90000C8000024294A016891423AD01D
:10046000274A1832914236D0254A3032914232D052
:10047000234A483291422ED0214A603291422AD0FA
:100480001F4A7832914226D01D4A9032914222D0A2
:100490001B4AA83291421ED01A4A91421BD0194AD7
:1004A0001832914217D0174A3032914213D0154A70
:1004B000483291420FD0134A603291420BD0114A18
:1004C0007832914207D00F4A9032914203D00D4AC0
:1004D000A832914211D1CAB21823103AB2FBF3F2FA
:1004E0006FF30901032A02F00703074AD25CC265D1
:1004F00000D9091D81650846704721F0FF01F9E721
:100500001000024010040240022F000830B5224AB9
:10051000012301689142CAB21BD01F4C1434A1427E
:1005200017D01D4C2834A14213D01B4C3C34A1429F
:100530000FD0194C5034A1420BD0174C6434A14257
:1005400007D0154C7834A14203D0134C8C34A1420F
:100550000CD11421114C083AB2FBF1F10F4A803250
:1005600001F01F0504EB8101AB4010E00C4D182495
:10057000103A0D44B2FBF4F1A82D00D80831094A15
:1005800001F01F0402EB8101064AA3408032603073
:1005900080E80E0030BD0000085402580058025890
:1005A000F0FBFDBF0008024010B50279531E072B77
:1005B0002DD8174C0168A1421BD0154C1434A14210
:1005C00017D0134C2834A14213D0114C3C34A14213
:1005D0000FD00F4C5034A1420BD00D4C6434A142CB
:1005E00007D00B4C7834A14203D0094C8C34A14283
:1005F00003D10849074C443102E00749064C443115
:1006000004EB8202C0E91B2101219940416710BD22
:1006100008540258FC580258FC08024010B583697F
:100620004FF0C074826A0146002053B1B3F5005FF9
:1006300015D072B1012A0CD0022A0AD0032A09D19E
:1006400004E01AB1012A06D0022A03D1C96AC901FD
:1006500000D5012010BDC96AA142FAD010BD002A00
:10066000F7D0012AF2D0022AF3D0032AF3D010BD2A
:10067000704772B6FEE70000054805490839026870
:1006800042F00202026008688004FCD57047000056
:100690000C4802582DE9FC5F0446F74E0020DFF8B5
:1006A000D88300904FF41652F44808F11808A56D4D
:1006B000DFF8C493DFF8C0A3016809F130092068AE
:1006C0000AF1480AB1FBF2F1B04201912F68D5F866
:1006D00000C0DFF8ACB335D04146884232D048453F
:1006E00030D050452ED058452CD0E549183188429D
:1006F00028D0E3493031884224D0E149483188424A
:1007000020D0E04988421DD0DE491831884219D0F6
:10071000DC493031884215D0DA494831884211D05D
:10072000DFF860E30EF1600E70450BD0D54A7832E9
:10073000904207D0D34B9033984203D0D149A8318F
:1007400088427DD194F85C20082102F01F0201FA52
:1007500002F23A424AD0B04232D0404530D0484509
:100760002ED050452CD058452AD0C54A1832904238
:1007700026D0C34A3032904222D0C14A48329042F9
:100780001ED0C04A90421BD0BE4A1832904217D0A9
:10079000BC4A3032904213D0BA4A483290420FD00D
:1007A000B84A603290420BD0B64A7832904207D0B5
:1007B000B44A9032904203D0B24AA832904203D158
:1007C000026802F0040202E0026802F008026AB164
:1007D000026822F00402026094F85C0000F01F003E
:1007E0008140A960606D40F00100606594F85C0094
:1007F000012100F01F008140394240D02068B04202
:1008000034D0404532D0484530D050452ED05845A0
:100810002CD09B4A1832904228D0994A30329042CC
:1008200024D0974A4832904220D0964A90421DD018
:10083000944A1832904219D0924A3032904200E0E5
:10084000AFE113D08F4A483290420FD08D4A6032C8
:1008500090420BD08B4A7832904207D0894A90322E
:10086000904203D0874AA83290427DD1406910F06F
:10087000800F04D0A960606D40F00200606594F8BC
:100880005C00042100F01F00814039423ED0206806
:10089000B04232D0404530D048452ED050452CD0C3
:1008A00058452AD0764A1832904226D0744A3032BF
:1008B000904222D0724A483290421ED0714A9042F1
:1008C0001BD0704A1832904217D06E4A3032904294
:1008D00013D06C4A483290420FD06A4A603290423C
:1008E0000BD0684A7832904207D0664A90329042E4
:1008F00003D0644AA83290424ED1006810F0020F33
:1009000004D0A960606D40F00400606594F85C005C
:10091000102100F01F008140394258D02068B042B9
:1009200034D0404532D0484530D050452ED058457F
:100930002CD0534A1832904228D0514A303290423B
:1009400024D04F4A4832904220D04E4A90421DD087
:100950004C4A1832904219D04A4A3032904215D04F
:10096000484A4832904200E014E00FD0454A6032D5
:1009700090420BD0434A7832904207D0414A90329D
:10098000904203D03F4AA832904207D1006800F05D
:10099000080006E0006872E70068B7E7006800F04A
:1009A0000400A0B1A96020680168490304D500686B
:1009B000000308D5A16C07E00168C90503D40168EC
:1009C00021F008010160216C09B12046884794F8A4
:1009D0005C00202100F01F008140394279D020685E
:1009E000B04232D0404530D048452ED050452CD072
:1009F00058452AD0224A1832904226D0204A303216
:100A0000904222D01E4A483290421ED01D4A904247
:100A10001BD01C4A1832904217D01A4A30329042EA
:100A200013D0184A483290420FD0164A6032904292
:100A30000BD0144A7832904207D0124A903290423A
:100A400003D0104AA832904203D1006800F0100091
:100A500002E0006800F00200B0B3A96094F835002D
:100A60000428206801680FD049037ED50068000380
:100A70002BD4616C2AE0000010000240000000242A
:100A8000700002401004024021F01601016020684D
:100A9000416921F080014161206C08B9A06C20B14E
:100AA0002068016821F00801016094F85C303F2162
:100AB000012003F01F0300229940A96084F835004B
:100AC00084F83420216D65E003E0E16B09B1204634
:100AD0008847606D00287DD0606DC00759D02068C0
:100AE000042184F83510B0422BD0404529D0484528
:100AF00027D0504525D0584523D09D49884220D045
:100B00009B49183188421CD099493031884218D00D
:100B10009849884215D097491831884211D0954993
:100B2000303188420DD093494831884209D09149EB
:100B30006031884205D08F497831884201D08D4993
:100B40009031016821F00101016020680099019A4B
:100B5000491C0091914202D80168C907F6D100688A
:100B6000C00710D003200FE0FFE70168C905ACD42F
:100B700003680121002223F01003036084F835107C
:100B800084F83420A1E7012084F83500002084F89F
:100B90003400E16C00291DD002B02046BDE8F05FB2
:100BA0000847754988421DD073491431884219D0CD
:100BB00071492831884215D06F493C31884211D0A3
:100BC0006D49503188420DD06B496431884209D05B
:100BD000694900E084E07831884203D066498C316D
:100BE00088427DD194F85C800427016808F01F08D2
:100BF00007FA08F717EA0C0F009746D04F0744D5BD
:100C000000980F04686003D5C8033CD4A16CC1E709
:100C1000880638D42068B0422DD0554960398842C2
:100C200029D0484527D0504525D0584523D0504994
:100C3000884220D04E49183188421CD04C4930316E
:100C4000884218D04B49884215D04A491831884209
:100C500011D04849303188420DD046494831884248
:100C600009D0704507D0904205D0984203D0414941
:100C7000A831884203D1016821F0080102E001682F
:100C800021F004010160216C84E7022707FA08F7CC
:100C900017EA0C0F00974ED08F074CD500980F0421
:100CA000686003D5C80344D4616C73E7880640D4F8
:100CB0002068B0422FD02E49603988422BD0484559
:100CC00029D0504527D0584525D02949884222D0DF
:100CD0002749183188421ED025493031884200E02A
:100CE00044E018D02349884215D02249183188425F
:100CF00011D02049303188420DD01E4948318842F8
:100D000009D0704507D0904205D0984203D01949C8
:100D1000A831884203D1016821F0140102E0016882
:100D200021F00A010160012184F83510002084F8C7
:100D30003400E16B2EE7082202FA08F212EA0C0FE7
:100D400014D0090712D5016821F00E01016094F852
:100D50005C100120002201F01F0100FA01F169601E
:100D6000606584F8350084F8342012E7BDE8FC9F04
:100D70008800024010040240085402582DE9F05F38
:100D8000044600F0F9FA002C07467DD0E34E02211C
:100D900020684FF00308DFF888934FF00005DFF874
:100DA00084A3B042DFF880B334D0DC4A18329042DA
:100DB00030D048452ED050452CD058452AD0DA4A5C
:100DC0001832904226D0D84A3032904222D0D64AA9
:100DD000483290421ED0D54A90421BD0D34A183296
:100DE000904217D0D14A3032904213D0CF4A483285
:100DF00090420FD0CD4A603290420BD0CB4A78322D
:100E0000904207D0C94A9032904203D0C74AA832D4
:100E100090427DD184F83510B04284F834502ED001
:100E2000BE49183188422AD0484528D0504526D09E
:100E3000584524D0BC491831884220D0BA493031B5
:100E400088421CD0B8494831884218D0B7498842F6
:100E500015D0B6491831884211D0B4493031884292
:100E60000DD0B2494831884209D0B049603188423A
:100E700005D0AE497831884201D0AC499031016843
:100E800021F00101016008E027E100BF00F074FAE1
:100E9000C01B052801D920211CE120680068C0077B
:100EA000F4D104F108002168D4E9053C8E4685C8D8
:100EB00009681043D4E907281F43636A38439C4FED
:100EC00040EA0C001043394040EA0800042B40EA95
:100ED000010003D1D4E90B12114308439549096875
:100EE0006FF30F01B1F1005F0FD36168A1F1290227
:100EF000052A08D9163A032A05D9083A012A02D93F
:100F00004F39032901D840F48010CEF8000000E0EA
:100F100023E02068676A4069042F20F0070047EA51
:100F200000070DD1D4E90A01074349B12046FFF774
:100F300075FB28B140206065012184F83510CCE0B4
:100F4000206847612046FFF787FA94F85C203F212C
:100F500002F01F029140816054E0774A90421BD01A
:100F6000754B1433984217D0734B2833984213D0E3
:100F7000714B3C3398420FD06F4B503398420BD09B
:100F80006D4B6433984207D06B4B7833984203D053
:100F9000694B8C3398427DD184F8351084F83450F5
:100FA000664B0168A26801EA030E402A73D0802ACA
:100FB00072D00022D4E90378D4E9053142EAD7029D
:100FC00042EAD8085C4AD4E9077C48EAD30848EAF0
:100FD000D10141EAD701524241EA1C11142341EAEE
:100FE0000E01016020681044B0FBF3F08000E06562
:100FF0002046FFF731FA94F85C20012102F01F022D
:10100000914041602068B04257D04449183188422D
:1010100053D0484551D050454FD058454DD0424906
:101020001831884249D040493031884245D03E4944
:101030004831884241D03D4988423ED03B49183131
:1010400088423AD039493031884236D03749483120
:10105000884232D03549603188422ED033497831C8
:1010600088422AD031499031884226D02F49A83170
:10107000884222D0304988421FD02F4914318842FB
:101080001BD02D492831884217D02B493C3188424A
:1010900013D002E01DE017E018E0274950318842E4
:1010A0000BD025496431884207D0234978318842E2
:1010B00003D021498C31884229D12046FFF726FAF6
:1010C000A06880280CD00CE0102273E74FF4804217
:1010D00070E74021616584F835800120BDE8F09F0C
:1010E0006560216E20790860D4E91901416060686B
:1010F000401E072808D82046FFF756FAE06E056024
:10110000D4E91C01416002E0E566256765670120BE
:10111000656584F835000020E0E70000100002401B
:10112000400002405800024070000240100402409B
:101130003F8010FE0010005C085402580F00FEFFB4
:101140002DE9F84F03247D4D00234FF001094FF0A6
:10115000B04B4FF00F0AE9E009FA03F73A4076D0B6
:101160000E7906F00306012E01D0022E18D1D0F818
:1011700008C04FEA430ECE6804FA0EF82CEA080CB9
:1011800006FA0EF646EA0C068660D0F804C00E7920
:101190002CEA070CC6F300169E4046EA0C06466091
:1011A0000E79F643B6070BD0C6684FEA43088F683E
:1011B00004FA08FC26EA0C0607FA08F73743C7606A
:1011C0000E7906F00306022E12D1DE080F694FEAEF
:1011D000437C00EB8606B646366A4FEADC6C0AFAB8
:1011E0000CF807FA0CF726EA08063743CEF8207009
:1011F0000F7906684FEA430807F0030704FA08FC72
:1012000007FA08F726EA0C06374307604E6816F41B
:10121000403F1CD04A4E376847F0020737603668B7
:101220009F0706F00206009623F0030606F1B0467B
:10123000B6463F0FD6F80864DFF808810AFA07FCC3
:10124000404526EA0C0603D14FF0000C41E06CE06B
:10125000DFF8F4C0604502D14FF0010C39E0DFF84F
:10126000ECC0604502D14FF0020C32E0DFF8E0C084
:10127000604502D14FF0030C2BE0DFF8D8C0604589
:1012800002D14FF0040C24E0DFF8CCC0604502D15D
:101290004FF0050C1DE0DFF8C4C0604502D14FF0EF
:1012A000060C16E0DFF8B8C0604502D14FF0070C1D
:1012B0000FE0DFF8B0C0604502D14FF0080C08E045
:1012C000DFF8A4C0604502D14FF0090C01E04FF0F7
:1012D0000A0C0CFA07FC4CEA060CCEF808C44F685E
:1012E000DBF80060FF0226EA020600D516435F46DF
:1012F000CBF80060D1F804C0DBF804605FEA8C2C06
:1013000026EA020600D516437E606E684F6826EA1C
:101310000206BF0300D516436E602E684F6826EAAA
:101320000206FF0300D516432E605B1C0A6832FAE2
:1013300003F67FF411AFBDE8F88F0000800000587D
:10134000F4440258000002580004025800080258F1
:10135000000C0258001002580014025800180258DD
:10136000001C02580020025800240258014800685E
:10137000000C70470010005C014880687047000056
:101380000800002402488168027811448160704797
:1013900008000024032010B500F0D4F800F012FF7C
:1013A0000F4A104914681368C4F3032203F00F03B3
:1013B0008A5CC95C02F01F0201F01F01D0400A4A9A
:1013C00020FA01F11160094908600F2000F010F8BF
:1013D00008B1012010BD00F079F8002010BD000018
:1013E00018440258F22E00080400002400000024D3
:1013F00070B50D4D04462878A0B14FF47A71B1FB59
:10140000F0F00A490968B1FBF0F001F038FA48B988
:10141000102C07D200222146501E00F073F8002045
:101420006C6070BD012070BD080000240000002425
:10143000154BF0B5083B427813491A600B680A1F38
:1014400023F001030B6043681360057BC67A827A40
:10145000437B2D07847B45EA0665C77B90F809C06E
:10146000067A90F800E045EAC24040EA834040EA4C
:10147000444040EA074040EA0C2040EA460040EA87
:101480000E000860F0BD0000A0ED00E0BFF35F8F2C
:10149000044800210368034A23F480330360703258
:1014A0001160704724ED00E0074A40F00100064952
:1014B00070321060086840F480300860BFF34F8FCE
:1014C000BFF36F8F7047000024ED00E0054808B5BA
:1014D000016841F002010160006800F00200009024
:1014E00008BD0000F4440258002809DB410900F05F
:1014F0001F028900012001F1E0219040C1F80001A4
:10150000704700000E4BF0B41B680D46C3F3022376
:10151000C3F10706042E00D90426191D072901D29C
:10152000002300E0DB1E012404FA06F19C40491E62
:101530002940641E994014402143F0BC01F067BC6F
:101540000CED00E0064900F0070210B54FF6FF046D
:101550000868044B204040EA02201843086010BD90
:101560000CED00E00000FA05134970B50A68D2439B
:10157000520705D5096801F00701814213D118E02F
:101580000A6822F0070202430A60FFF7F5FE0A4DDF
:101590004FF47A760446083D07E000BFFFF7ECFE03
:1015A000001BB04201D9012070BD2868C0438004EF
:1015B000F4D4002070BD00000C4802582DE9FE4F05
:1015C0000546DFF8E48350F8081B0024F64FC943B2
:1015D000019005F12800264608F124080090080132
:1015E0001DD4A86E50B1B0F5801F0CD0B0F5001F0F
:1015F0000ED0B0F5401F1ED001240FE0386840F433
:101600000030386017E00198022101F013FA03E07E
:101610000098022101F09EFA04000CD0264628888A
:10162000C043C00523D4A86D05281ED2DFE800F012
:101630000C11161B1B00AA6ED8F8001021F44011E3
:101640001143C8F80010EAE7386840F40030386009
:1016500009E00198002101F0EDF903E00098002174
:1016600001F078FA044674B100E001242646288887
:10167000C043800528D4E86D80281ED00CDC90B1D2
:1016800040280ED114E0AA6DD8F8001021F007010F
:101690001143C8F80010EAE7C02813D0B0F5807FE6
:1016A00010D001240FE0386840F40030386009E0C1
:1016B0000198002101F0BEF903E00098002101F03B
:1016C00049FA04469CB126462888DFF8DC92C043DC
:1016D00009F12C0940052CD4D5F8A800B0F5800FED
:1016E00020D00DDCA0B1B0F5001F0FD115E0EA6DE0
:1016F000D8F8001021F4E0711143C8F80010E3E7B6
:10170000B0F5C00F13D0B0F5000F10D001240FE0DA
:10171000386840F40030386009E00198002101F099
:1017200089F903E00098002101F014FA04467CB125
:1017300026462888C04300052DD4D5F8AC00B0F16A
:10174000007F21D00EDCA8B1B0F1807F10D116E06F
:10175000D5F8A820D9F8001021F460011143C9F888
:101760000010E6E7B0F1407F13D0B0F1806F10D0E9
:1017700001240FE0386840F40030386009E0019837
:10178000002101F057F903E00098002101F0E2F98F
:10179000044674B126462868C04380011FD4E86C13
:1017A000D8B110280FD0202812D0302815D001240D
:1017B00014E0D5F8AC20D9F8001021F0E061114315
:1017C000C9F80010E7E7386840F40030386004E0FA
:1017D0000198022101F02EF9044674B126462888AA
:1017E000C043C0042BD4286EB0F5005F20D00DDCC0
:1017F000A0B1B0F5805F0FD115E06B48EA6C2030E6
:10180000016821F0300111430160E8E7B0F5405F65
:1018100013D0B0F5804F10D001240FE0386840F4A9
:101820000030386009E00198002101F003F903E07D
:101830000098002101F08EF904468CB126462888D4
:10184000C043800429D4686EB0F5403F23D010DC3B
:1018500008B3B0F5803F14D0B0F5003F0FD115E0CC
:101860002A6ED8F8001021F4E0411143C8F80010A6
:10187000E5E7B0F5802F0ED0B0F5A02F0BD00124F6
:101880000AE00198012101F0D5F803E00098012158
:1018900001F060F9044694B126462888C04340040C
:1018A0002AD4D5F8B000B0F1405F23D010DC08B3E3
:1018B000B0F1805F14D0B0F1005F0FD115E06A6E17
:1018C000D8F8001021F4E0211143C8F80010E4E733
:1018D000B0F1804F0ED0B0F1A04F0BD001240AE040
:1018E0000198012101F0A6F803E00098012101F020
:1018F00031F9044674B126462888C04300041FD439
:10190000286FD8B1B0F1805F0ED0B0F1005F10D079
:10191000012414E0D5F8B020D9F8001021F0E041FE
:101920001143C9F80010E7E7386840F40030386028
:1019300004E00198012101F07DF8044674B12646C7
:101940002868C043C0011ED4A86CD0B101280ED0B5
:10195000022811D0032814D0012413E02A6FD8F8EC
:10196000001021F040511143C8F80010E8E7386832
:1019700040F40030386004E00198022101F05AF888
:101980000446ACB126462868DFF81CB0C043ABF172
:101990001C0B400252D40548016841F4807101607B
:1019A000FFF7EAFC824611E02C4402580048025836
:1019B000FA48AA6C016821F0030111430160E2E7D3
:1019C000FFF7DAFCA0EB0A00642835D8F448006879
:1019D000C005F5D58CBBDFF8C4A3B5F8B4100AF187
:1019E000240ADAF8000001F4407100F440708842E3
:1019F00011D0DAF80010DAF8002021F4407142F436
:101A00008032CAF80020DAF8002022F48032CAF8C6
:101A10000020CAF80010D5F8B400B0F5807F1AD1C4
:101A2000FFF7AAFC029012E0FFF7A6FC0299411A08
:101A300041F2883081420AD9032426462878DFF80B
:101A40005CA3C0430AF1080AC00721D03CE0DAF8E1
:101A500000008007E8D5D5F8B410C1F301200328B1
:101A600058460DD0016821F47C510160B5F8B420CE
:101A7000DAF80010C2F30B021143CAF80010DDE7D8
:101A8000C84A036802EA111223F47C511143ECE7BF
:101A9000E86F182816D005DCA0B1082808D0102857
:101AA00004D10AE020280DD028280BD001240AE018
:101AB0000198012100F0BEFF03E00098012101F030
:101AC00049F8044664B126462878C04380071ED4EE
:101AD000A86F062819D2DFE800F0160C11161616AA
:101AE000EA6FDAF8001021F038011143CAF800104B
:101AF000EAE70198012100F09DFF03E00098012131
:101B000001F028F804467CB100E00124264628783C
:101B1000C04340071FD4D5F89400062819D2DFE847
:101B200000F0160C11161616AA6FDAF8001021F044
:101B300007011143CAF80010E9E70198012100F0FC
:101B400079FF03E00098012101F004F80446A4B1F4
:101B500000E0012426462878C04380062BD4D5F81F
:101B60009000B0F1405F24D011DC10B3B0F1805F81
:101B700015D0B0F1005F10D116E0D5F89420D9F857
:101B8000001021F007011143C9F80010E3E7B0F19C
:101B9000804F0ED0B0F1A04F0BD001240AE0019885
:101BA000002100F047FF03E00098022100F0D2FF7F
:101BB000044694B126462878C04340062BD4D5F875
:101BC0009C00B0F5406F24D011DC10B3B0F5806FED
:101BD00015D0B0F5006F10D116E0D5F89020DAF8E6
:101BE000001021F0E0411143CAF80010E3E7B0F51E
:101BF000805F0ED0B0F5A05F0BD001240AE0019801
:101C0000002100F017FF03E00098022100F0A2FF7E
:101C1000044694B126462878C04300062BD4D5F854
:101C2000A000B0F5C04F24D011DC10B3B0F5005FB8
:101C300015D0B0F5804F10D116E0D5F89C20D9F81A
:101C4000001021F4E0511143C9F80010E3E7B0F5AA
:101C5000004F0ED0B0F5204F0BD001240AE00198C0
:101C6000002100F0E7FE03E00098022100F072FF7F
:101C7000044654B126462878C04300071ED4D5F840
:101C80008400B0F5805F0AD00FE0D5F8A020D9F825
:101C9000001021F460411143C9F80010EBE70098EF
:101CA000022100F057FF00B10126D5F88420DAF8B0
:101CB000001021F440511143CAF800102878C043A5
:101CC000C00613D4D5F89800B0F5807F05D10098F0
:101CD000022100F03FFF00B10126D5F89820D9F885
:101CE000001021F440711143C9F800102868C04366
:101CF000000316D4D5F8A40038B1B0F5803F09D060
:101D0000B0F5003F0BD001240AE00198002100F05B
:101D100091FE03E00098022100F01CFF04468CB104
:101D200026462868C043400322D4D5F88800B0F581
:101D3000801F11D0B0F5001F13D0B0F5401F15D093
:101D4000012414E0D5F8A420D9F8001021F4403182
:101D50001143C9F80010E4E7386840F400303860F7
:101D600004E00098012100F0F5FE04465CB126462F
:101D70002868C043C00323D4286DA8B1B0F5803FC4
:101D800017D001241BE0D5F88820DAF8001021F4E0
:101D900040111143CAF80010EAE700004C44025811
:101DA00000480258CFFFFF00386840F40030386028
:101DB00004E00198022100F03DFE0446E4B126460D
:101DC0002868C043800005D40098022100F0C2FEBC
:101DD00000B101262868C04380031BD4D5F88000D9
:101DE000B0B1B0F5807F0FD0B0F5007F10D0B0F566
:101DF000407F0DD001240CE05A482A6D016821F47F
:101E0000803111430160DBE7386840F4003038600E
:101E1000ECB326462868C043C00207D46A6FD8F8DE
:101E2000001021F000411143C8F800102868C04399
:101E3000C00008D4D5F8B820DBF8001021F48041A8
:101E40001143CBF800102868C043800207D4EA6E23
:101E5000D8F8001021F080711143C8F800102868EC
:101E6000C04340000CD4DBF8001021F40041CBF853
:101E70000010DBF80010D5F8BC201143CBF800109F
:101E80002868C04308D437486A6D016800E018E04C
:101E900021F04051114301602868C043000208D47A
:101EA000D5F88C20DAF8001021F440011143CAF86B
:101EB000001028790024C04300F0010020430AD01C
:101EC0000FE0D5F88020DAF8001021F440711143BA
:101ED000CAF800109EE70198002100F0ABFD00B1A8
:101EE00006462879C04300F00200204305D101983E
:101EF000012100F09FFD00B106462879C04300F0A3
:101F00000400204305D10198022100F093FD00B1A7
:101F100006462879C04300F00800204305D1009808
:101F2000002100F017FE00B106462879C04300F0FA
:101F30001000204305D10098012100F00BFE00B1F4
:101F400006462879C04300F02000044304D10098DD
:101F5000022100F0FFFD00B916B10120BDE8FE8F9F
:101F60000020FBE74C4402582DE9F05F04000F46C7
:101F70007ED0DFF83882D8F8000000F00F00B842B9
:101F80000CD2D8F8001021F00F013943C8F8001026
:101F9000D8F8000000F00F00B84269D12078844DD5
:101FA00040070AD52069296801F07001884204D9E8
:101FB000296821F070010143296020787C4E361D8C
:101FC00000070AD56069316801F07001884204D9C0
:101FD000316821F07001014331602078C0060AD5D4
:101FE000A069316801F4E061884204D9316821F4C4
:101FF000E061014331602078DFF8B4B180060BF175
:10200000080B0CD5E1695846DBF8002002F070029D
:10201000914204D9026822F070020A4302602078DB
:1020200080070AD5E068296801F00F01884204D9C9
:10203000296821F00F01014329602078C0073ED0B4
:102040005B49A2682868183920F470601043286042
:102050006068022818D0032819D00968012819D00F
:10206000490700294ADADFF848A1AAF1080A00E086
:1020700044E0DAF8002022F007020243CAF8002008
:10208000FFF77AF9814612E009688903E9E70968F0
:102090008901E6E7C905E4E7FFF76EF9A0EB09015E
:1020A00041F28830814202D90320BDE8F09F616887
:1020B000DAF8000000F03800B0EBC10FECD1207866
:1020C00080070AD5E068296801F00F01884204D230
:1020D000296821F00F0101432960D8F8001040461B
:1020E00001F00F01B9420BD9016821F00F0139430A
:1020F0000160006800F00F00B84201D00120D4E771
:10210000207840070AD52069296801F070018842CB
:1021100004D2296821F0700101432960207800076A
:102120000AD56069316801F07001884204D23168D3
:1021300021F07001014331602078C0060AD5A06902
:10214000316801F4E061884204D2316821F4E06131
:1021500001433160207880060CD5E1695846DBF8F0
:10216000002002F07002914204D2026822F0700254
:102170000A43026000F026F80E492A682B68C2F371
:10218000032203F00F038A5CC95C02F01F0201F016
:102190001F01D040084A20FA01F111600749086088
:1021A00007480068BDE8F05FFFF722B90020005241
:1021B00018440258F22E00080400002400000024F5
:1021C0000C000024454970B545480968434B103B55
:1021D00011F0380208D00111082A03D0102A0BD0C0
:1021E000182A0BD0084670BD19688906FBD51968F6
:1021F000C1F3C101C84070BD3A4870BD3749374D81
:1022000018310C1D24350A68096826682D6802F00B
:10221000030406F00102C1F30511C5F3CC0515FB5B
:1022200002F200EE102AB8EE400AE9B32F4ADFEDC1
:102230002E0AB7EE001A6CB1DFED2D1A012C01D079
:10224000022C43D002EE101A1068F8EE422A81EEFA
:10225000A22A1EE01C68A40611D51B6801EE901A84
:102260001168C3F3C103F8EE612AD84001EE900A69
:10227000C1F30800F8EE611A81EEA22A0BE001EE2C
:10228000901ADFED1C2A00BFF8EE611A106882EE8A
:10229000A12AC0F3080001EE900AF8EE611A40EEA0
:1022A000201A31EE810A00E015E022EE000A1068E3
:1022B000C0F34620401C00EE900AF8EE600A80EE63
:1022C000201ABCEEC10A10EE100A70BD01EE901A81
:1022D000DFED092AD8E7002070BD00001044025845
:1022E0000090D00340787D0100000039304402584E
:1022F0000024744A0024744C20BCBE4B2DE9F05FCE
:1023000004007DD0FF4F2078FE4D1837DFF8F4939E
:10231000103DC00748D0D9F80000396800F03800F7
:10232000102815D0182803D101F0030002280FD07F
:102330006068B0F5803F12D010B1B0F5A02F18D072
:10234000286820F480302860286820F4802009E084
:102350002868800328D560680028D2D024E0286847
:1023600040F480302860606888B1FFF705F80646C1
:1023700009E0286840F480202860F0E7FEF7FCFFC1
:10238000801B64286FD828688003F7D50CE0FEF71F
:10239000F3FF064605E000BFFEF7EEFF801B642852
:1023A000F0D828688003F7D4207841F20308D54E8E
:1023B0000C3E800769D5D9F80000396810F0380064
:1023C0000ED0182801D188070AD0E06890B3296898
:1023D00021F0190101432960FEF7CEFF824631E06A
:1023E0002868400702D5E06800288AD0E16828689C
:1023F00020F0190008432860FEF7BEFF824607E080
:10240000DFE000BFFEF7B8FFA0EB0A000228B9D852
:1024100028684007F6D500BFFEF7A8FF40451BD847
:102420002069402812D0316821F47C3141EA003023
:1024300030602AE018E000BFFEF79EFFA0EB0A0024
:1024400002289FD828684007F6D5E5E7306820F4D1
:102450007C3040F40030EBE7207C316821F0FE4115
:1024600041EA0060E4E70DE1286820F001002860FF
:10247000FEF782FF824605E0FEF77EFFA0EB0A0032
:1024800002288DD828684007F6D42078C0065DD58C
:10249000D9F80000DFF86CB2396800F03800ABF111
:1024A000040B082810D0182803D101F003000128DC
:1024B0000AD0E0690028286838D040F08000286001
:1024C000FEF75AFF824623E02868C00523D5E0695D
:1024D000802876D11FE0206A202821D0316821F0A1
:1024E000F84141EA8060306030E000BF94F820108D
:1024F000DBF8002022F07C5242EA0161CBF80010A8
:1025000024E000BFFEF738FFA0EB0A00022898D8AD
:102510002868C005F6D5FEF729FF4045E6D8DAE77A
:10252000306820F0F84040F08040DCE720F0800088
:102530002860FEF721FF064605E000BFFEF71CFFFE
:10254000801B02289DD82868C005F7D42078000792
:1025500029D56C486169643000298046016811D032
:1025600041F001010160FEF707FF064605E000BFEC
:10257000FEF702FF801B0228C9D8D8F800008007A8
:10258000F6D510E021F001010160FEF7F5FE0646E8
:1025900005E000BFFEF7F0FE801B022872D8D8F8D5
:1025A00000008007F6D42078800623D5A069002893
:1025B000286810D040F480502860FEF7DDFE064603
:1025C00005E036E1FEF7D8FE801B02285AD82868BD
:1025D0008004F7D50EE020F480502860FEF7CCFE92
:1025E000064604E0FEF7C8FE801B02284AD8286889
:1025F0008004F7D4207840074FD5DFF80C81D8F855
:10260000001041F48071C8F80010FEF7B5FE0646D0
:1026100005E000BFFEF7B0FE801B642832D8D8F872
:102620000000C005F6D5374EA068603601280AD0F4
:1026300008B1052813D0306820F001003060306800
:1026400020F0040002E0306840F001003060A06833
:1026500041F2883A90B1FEF78FFE80460AE030687A
:1026600040F004003060EEE7FEF786FEA0EB0801C4
:10267000514507D830688007F6D50EE0FEF77CFE9E
:10268000804607E084E000BFFEF776FEA0EB08017D
:1026900051457DD830688007F6D4606AB0B3DFF862
:1026A0006480D9F8001008F120084FF6F87B08F193
:1026B0000409C1F3C2010329A8F1040A69D0022860
:1026C000286820F08070286003D0FEF755FE04468D
:1026D00084E0FEF751FE064605E000BFFEF74CFE23
:1026E000801B022877D828688001F7D4E26A40F27C
:1026F000F331386854F8283F884340EA0210184301
:10270000386004E01044025800480258B5E0217BCC
:10271000434622894FF4FE0C208A4FF0FE474902BF
:10272000267D521E401EA1F50071C2F308088AB230
:10273000761E0CEA004042EA08020243504607EACD
:1027400006610A431A60DAF8002022F00102CAF892
:102750000020D9F80020266A22EA0B0242EAC602CB
:10276000C9F80020DAF80010A26921F00C01114329
:10277000CAF800100168E26921F00201114301600A
:10278000016841F480310160016841F4003101E0E9
:1027900021E027E00160016841F4802101600168C7
:1027A00041F001010160286840F080702860FEF768
:1027B000E3FD044605E000BFFEF7DEFD001B022836
:1027C00009D828688001F7D557E000BFFEF7D4FD8F
:1027D000001B022802D90320BDE8F09F2868800171
:1027E000F4D44AE039680128D8F8000021D0A26A60
:1027F00001F0030393421CD1E26AC1F305118A423E
:1028000017D1216BC0F30802491E8A4211D1616BB6
:10281000C0F34622491E91420BD1A16BC0F3064280
:10282000491E914205D1E16BC0F30660491E814209
:1028300001D00120D0E7A16C4E46D9F80000C0F3CA
:10284000CC00814219D0DAF80000554620F0010092
:10285000CAF80000FEF790FD4FEA0007FEF78CFD76
:10286000B842FBD0A26C306820EA0B0040EAC200FC
:102870003060286840F0010028600020ACE7401E6E
:10288000B0F1807F10B501D3012010BD4FF0E024DE
:1028900060610F21601700F0BAFA0020A0610721E3
:1028A000216110BD00207047002070470020704754
:1028B000704710B518B100F005F8002010BD0120D8
:1028C00010BD00002DE9F043B7B00746142130A831
:1028D000FDF757FDC0216846FDF753FD33493868C1
:1028E00088425FD100211E9102200C46CDE90001F3
:1028F0006846FEF763FE08B1FDF7BBFE2C48016891
:1029000041F080410160006800F080403590284827
:102910000838016841F010010160006830AB022105
:1029200000F0100035904FF4C070072283E81300C8
:10293000204830A9CDE93342FEF702FC1E4E4F235A
:102940001E4A4FF480684FF48039304686E81C00F8
:10295000C6E903487461B461C6E907497462FEF7C9
:102960000DFA08B1FDF785FE154D5022134940239D
:102970003E6328461831B76385E81E016C61AC617F
:10298000C5E907496C62FEF7F9F908B1FDF771FE78
:102990000022FD6252201146AF63FEF7B3FD5220C4
:1029A000FEF7A2FD37B0BDE8F083000000780040DC
:1029B000E84402580010025850000024A0040240CD
:1029C000C8000024FEE700001748002110B5154C90
:1029D00003224FF4E1330460C0E90131C160C0E972
:1029E00004128161C161016241628162FFF761FF8E
:1029F00008B172B6FEE70C480021FFF757FF08B197
:102A000072B6FEE708480021FFF74EFF08B172B624
:102A1000FEE70548FFF746FF002801D072B6FEE743
:102A200010BD00000078004014000024FEE7FEE71F
:102A3000704700002DE9F047454D044689464FF0A8
:102A4000000A2868C04380070AD0414E283E3068FB
:102A500020F080603060FEF78FFC0746B04608E04B
:102A60000120BDE8F08700BFFEF786FCC01B0228EE
:102A700067D8D8F800000001F6D4206829684FF420
:102A8000FE0721F47C313E0241EA00302860207AC2
:102A9000A389B4F804C040022D4D2D495B1E227C51
:102AA000ACF1010C1035091DA0F5007080B2521E6A
:102AB000CCF3080C07EA034340EA0C00184306EA8B
:102AC0000262104328600868626920F0C000104369
:102AD00008600A68A06922F0200202430A60281DEB
:102AE0000A6822F010020A6002684FF6F873E4697F
:102AF0009A4342EAC40202600868B9F1000F40F04C
:102B000010020A6011D00868B9F1010F11D040F429
:102B100000100860D8F80000444640F08060C8F813
:102B20000000FEF729FC05460DE0086840F400208F
:102B3000EFE740F48010ECE7FEF71EFC401B022894
:102B400001D903208DE720680001F5D5504688E7BC
:102B5000284402582DE9F047454D044689464FF078
:102B6000000A2868C04380070AD0414E283E3068DA
:102B700020F080503060FEF7FFFB0746B04608E0CB
:102B80000120BDE8F08700BFFEF7F6FBC01B02285E
:102B900067D8D8F800008000F6D4208829684FF460
:102BA000FE0721F07C713E0241EA00502860207A45
:102BB000A389B4F804C040022D4D2D495B1E227C30
:102BC000ACF1010C1835091DA0F5007080B2521E41
:102BD000CCF3080C07EA034340EA0C00184306EA6A
:102BE0000262104328600868626920F44060104364
:102BF00008600A68A06922F4007202430A60281D76
:102C00000A6822F480720A6002684FF6F873E46979
:102C10009A4342EAC40202600868B9F1000F40F426
:102C200080720A6011D00868B9F1010F11D040F02C
:102C300080700860D8F80000444640F08050C8F822
:102C40000000FEF799FB05460DE0086840F480009F
:102C5000EFE740F40000ECE7FEF78EFB401B022894
:102C600001D903208DE720688000F5D5504688E71C
:102C7000284402587047FEF785BB000010B59CB091
:102C80004C216846FDF77DFB202113A8FDF779FB59
:102C90000220FEF769FC1A490A681A4822F001026C
:102CA0000A600968016821F4404141F480410160F3
:102CB0000168002401F440411B9101688904FCD59E
:102CC000402209940220009001216846CDE90312B8
:102CD000FFF714FB08B172B6FEE73F20CDE91304FD
:102CE0001594012113A816941794189419941A9402
:102CF000FFF73AF9002801D072B6FEE71CB010BD0C
:102D00002C040058184802583348F0B5334A01687B
:102D100041F470010160106800F00F00072804D230
:102D2000106820F00F00C01D10602D4900202C4CB1
:102D300010340B682B4D43F001030B6020600B68CF
:102D40002B400B60136803F00F03072B04D91368A3
:102D500023F00F03DB1D1360214C234A1834234B4F
:102D6000261D371D20601E4C214D28343060261D45
:102D70003860371D23603B1D35601C1D3A60251DE2
:102D80002E1D1860331D22602860326018600A68AA
:102D9000134B184C22F4802260330A6018602068BC
:102DA0006FF30F00B0F1005F03D213490120C1F8A7
:102DB00008010B48D4300168C9040BD4026843F2FF
:102DC000D2010E4B42F4805202601960016821F476
:102DD00080510160F0BD000088ED00E0002000524D
:102DE000004402587FEDF6EA80020101000202026F
:102DF0000000FF010010005C008000510040005204
:102E00000148FFF755BD000014000024FEE7090744
:102E100000284FEA116104DB00F1E02080F8001483
:102E2000704700F00F0000F1E02080F8141D70479B
:102E3000FEE700001FB5002400940194029403945F
:102E4000FEF724FB01208DF80C001F218DF80810DF
:102E500087228DF809208DF80D008DF80000684656
:102E60008DF80A408DF80E408DF8014001948DF8E0
:102E70000B408DF80F40FEF7DBFA0420FEF714FB41
:102E8000FEF788FAFFF7FAFE1648016841F0800164
:102E90000160016801F080010091016841F01001BA
:102EA0000160006800F0100000900E4808380168CA
:102EB00041F00201016000680022114600F00200AA
:102EC00000904520FEF71EFB4520FEF70DFB00227B
:102ED00046201146FEF716FB4620FEF705FBFFF7DE
:102EE00073FDFEE7E04402584FF04070E1EE100A37
:102EF00070470000000001020304010203040607FA
:102F00000809000610160006101600002C2F0008F5
:102F10000000002414000000D4020008402F000824
:102F2000140000248C070000F00200080090D00379
:102F30000090D0030100000010000000000000001D
:040000050800029954
:00000001FF
